{
  "contractName": "UserData",
  "abi": [
    {
      "inputs": [
        {
          "internalType": "uint256",
          "name": "",
          "type": "uint256"
        }
      ],
      "name": "data",
      "outputs": [
        {
          "internalType": "string",
          "name": "",
          "type": "string"
        }
      ],
      "stateMutability": "view",
      "type": "function",
      "constant": true
    },
    {
      "inputs": [
        {
          "internalType": "string",
          "name": "_data",
          "type": "string"
        }
      ],
      "name": "store",
      "outputs": [],
      "stateMutability": "nonpayable",
      "type": "function"
    },
    {
      "inputs": [],
      "name": "retrieve",
      "outputs": [
        {
          "internalType": "string[]",
          "name": "",
          "type": "string[]"
        }
      ],
      "stateMutability": "view",
      "type": "function",
      "constant": true
    },
    {
      "inputs": [
        {
          "internalType": "uint256",
          "name": "index",
          "type": "uint256"
        },
        {
          "internalType": "string",
          "name": "_data",
          "type": "string"
        }
      ],
      "name": "update",
      "outputs": [],
      "stateMutability": "nonpayable",
      "type": "function"
    },
    {
      "inputs": [
        {
          "internalType": "uint256",
          "name": "index",
          "type": "uint256"
        }
      ],
      "name": "remove",
      "outputs": [],
      "stateMutability": "nonpayable",
      "type": "function"
    }
  ],
  "bytecode": "0x608060405234801561001057600080fd5b506107f1806100206000396000f3fe608060405234801561001057600080fd5b50600436106100575760003560e01c8063131a06801461005c5780632e64cec1146100715780634cc822151461008f578063f0ba8440146100a2578063f745630f146100c2575b600080fd5b61006f61006a3660046105bc565b6100d5565b005b610079610119565b604051610086919061069f565b60405180910390f35b61006f61009d3660046105f7565b6101f2565b6100b56100b03660046105f7565b6102d7565b60405161008691906106ff565b61006f6100d036600461060f565b610383565b600080546001810182559080528151610115917f290decd9548b62a8d60345a988386fc84ba6bc95484008f6362f93160ef3e563019060208401906103e8565b5050565b60606000805480602002602001604051908101604052809291908181526020016000905b828210156101e957838290600052602060002001805461015c9061076a565b80601f01602080910402602001604051908101604052809291908181526020018280546101889061076a565b80156101d55780601f106101aa576101008083540402835291602001916101d5565b820191906000526020600020905b8154815290600101906020018083116101b857829003601f168201915b50505050508152602001906001019061013d565b50505050905090565b600054811061021c5760405162461bcd60e51b815260040161021390610719565b60405180910390fd5b6000805461022c90600190610747565b8154811061024a57634e487b7160e01b600052603260045260246000fd5b906000526020600020016000828154811061027557634e487b7160e01b600052603260045260246000fd5b9060005260206000200190805461028b9061076a565b61029692919061046c565b5060008054806102b657634e487b7160e01b600052603160045260246000fd5b6001900381819060005260206000200160006102d291906104e7565b905550565b600081815481106102e757600080fd5b9060005260206000200160009150905080546103029061076a565b80601f016020809104026020016040519081016040528092919081815260200182805461032e9061076a565b801561037b5780601f106103505761010080835404028352916020019161037b565b820191906000526020600020905b81548152906001019060200180831161035e57829003601f168201915b505050505081565b60005482106103a45760405162461bcd60e51b815260040161021390610719565b80600083815481106103c657634e487b7160e01b600052603260045260246000fd5b9060005260206000200190805190602001906103e39291906103e8565b505050565b8280546103f49061076a565b90600052602060002090601f016020900481019282610416576000855561045c565b82601f1061042f57805160ff191683800117855561045c565b8280016001018555821561045c579182015b8281111561045c578251825591602001919060010190610441565b50610468929150610526565b5090565b8280546104789061076a565b90600052602060002090601f01602090048101928261049a576000855561045c565b82601f106104ab578054855561045c565b8280016001018555821561045c57600052602060002091601f016020900482015b8281111561045c5782548255916001019190600101906104cc565b5080546104f39061076a565b6000825580601f106105055750610523565b601f0160209004906000526020600020908101906105239190610526565b50565b5b808211156104685760008155600101610527565b600082601f83011261054b578081fd5b813567ffffffffffffffff80821115610566576105666107a5565b604051601f8301601f19168101602001828111828210171561058a5761058a6107a5565b6040528281528483016020018610156105a1578384fd5b82602086016020830137918201602001929092529392505050565b6000602082840312156105cd578081fd5b813567ffffffffffffffff8111156105e3578182fd5b6105ef8482850161053b565b949350505050565b600060208284031215610608578081fd5b5035919050565b60008060408385031215610621578081fd5b82359150602083013567ffffffffffffffff81111561063e578182fd5b61064a8582860161053b565b9150509250929050565b60008151808452815b818110156106795760208185018101518683018201520161065d565b8181111561068a5782602083870101525b50601f01601f19169290920160200192915050565b6000602080830181845280855180835260408601915060408482028701019250838701855b828110156106f257603f198886030184526106e0858351610654565b945092850192908501906001016106c4565b5092979650505050505050565b6000602082526107126020830184610654565b9392505050565b602080825260149082015273496e646578206f7574206f6620626f756e64732160601b604082015260600190565b60008282101561076557634e487b7160e01b81526011600452602481fd5b500390565b60028104600182168061077e57607f821691505b6020821081141561079f57634e487b7160e01b600052602260045260246000fd5b50919050565b634e487b7160e01b600052604160045260246000fdfea26469706673582212207998b4b073694f3bbc663b284cfec8438075c7587c05def821d653a31c26940664736f6c63430008000033",
  "immutableReferences": {},
  "source": "// SPDX-License-Identifier: MIT\npragma solidity ^0.8.0;\n\ncontract UserData {\n    string[] public data;\n\n    function store(string memory _data) public {\n        data.push(_data);\n    }\n\n    function retrieve() public view returns (string[] memory) {\n        return data;\n    }\n\n    function update(uint index, string memory _data) public {\n        require(index < data.length, \"Index out of bounds!\");\n        data[index] = _data;\n    }\n\n    function remove(uint index) public {\n        require(index < data.length, \"Index out of bounds!\");\n        data[index] = data[data.length - 1];\n        data.pop();\n    }\n}\n",
  "sourcePath": "/Users/aryangupta/Desktop/Capstone/src/Datachain/contracts/UserData.sol",
  "compiler": {
    "name": "solc",
    "version": "0.8.0+commit.c7dfd78e.Emscripten.clang"
  },
  "schemaVersion": "3.4.15",
  "updatedAt": "2023-09-06T11:57:53.952Z",
  "networkType": "ethereum",
  "devdoc": {
    "kind": "dev",
    "methods": {},
    "version": 1
  },
  "userdoc": {
    "kind": "user",
    "methods": {},
    "version": 1
  }
}