{
  "contractName": "UserData",
  "abi": [
    {
      "inputs": [
        {
          "internalType": "string",
          "name": "_data",
          "type": "string"
        }
      ],
      "name": "storeData",
      "outputs": [],
      "stateMutability": "nonpayable",
      "type": "function"
    },
    {
      "inputs": [],
      "name": "retrieveData",
      "outputs": [
        {
          "internalType": "string",
          "name": "",
          "type": "string"
        }
      ],
      "stateMutability": "view",
      "type": "function",
      "constant": true
    },
    {
      "inputs": [
        {
          "internalType": "string",
          "name": "_newData",
          "type": "string"
        }
      ],
      "name": "editData",
      "outputs": [],
      "stateMutability": "nonpayable",
      "type": "function"
    },
    {
      "inputs": [],
      "name": "deleteData",
      "outputs": [],
      "stateMutability": "nonpayable",
      "type": "function"
    }
  ],
  "bytecode": "0x608060405234801561001057600080fd5b506103bc806100206000396000f3fe608060405234801561001057600080fd5b506004361061004c5760003560e01c806351e0556d14610051578063e0ba432a1461006f578063e8b6a08114610079578063fb218f5f14610079575b600080fd5b61005961008c565b60405161006691906102e2565b60405180910390f35b61007761012d565b005b610077610087366004610241565b610147565b3360009081526020819052604090208054606091906100aa90610335565b80601f01602080910402602001604051908101604052809291908181526020018280546100d690610335565b80156101235780601f106100f857610100808354040283529160200191610123565b820191906000526020600020905b81548152906001019060200180831161010657829003601f168201915b5050505050905090565b33600090815260208190526040812061014591610169565b565b336000908152602081815260409091208251610165928401906101a8565b5050565b50805461017590610335565b6000825580601f1061018757506101a5565b601f0160209004906000526020600020908101906101a5919061022c565b50565b8280546101b490610335565b90600052602060002090601f0160209004810192826101d6576000855561021c565b82601f106101ef57805160ff191683800117855561021c565b8280016001018555821561021c579182015b8281111561021c578251825591602001919060010190610201565b5061022892915061022c565b5090565b5b80821115610228576000815560010161022d565b60006020808385031215610253578182fd5b823567ffffffffffffffff8082111561026a578384fd5b818501915085601f83011261027d578384fd5b81358181111561028f5761028f610370565b604051601f8201601f19168101850183811182821017156102b2576102b2610370565b60405281815283820185018810156102c8578586fd5b818585018683013790810190930193909352509392505050565b6000602080835283518082850152825b8181101561030e578581018301518582016040015282016102f2565b8181111561031f5783604083870101525b50601f01601f1916929092016040019392505050565b60028104600182168061034957607f821691505b6020821081141561036a57634e487b7160e01b600052602260045260246000fd5b50919050565b634e487b7160e01b600052604160045260246000fdfea2646970667358221220807ffae48447c11df4b18909217e455e5448624d40864c26b195fea40ef6028064736f6c63430008000033",
  "immutableReferences": {},
  "source": "// SPDX-License-Identifier: MIT\npragma solidity ^0.8.0;\n\ncontract UserData {\n    mapping(address => string) private data;\n\n    function storeData(string memory _data) public {\n        data[msg.sender] = _data;\n    }\n\n    function retrieveData() public view returns (string memory) {\n        return data[msg.sender];\n    }\n\n    function editData(string memory _newData) public {\n        data[msg.sender] = _newData;\n    }\n\n    function deleteData() public {\n        delete data[msg.sender];\n    }\n}\n",
  "sourcePath": "/Users/aryangupta/Desktop/Capstone/src/Datachain/contracts/UserData.sol",
  "compiler": {
    "name": "solc",
    "version": "0.8.0+commit.c7dfd78e.Emscripten.clang"
  },
  "schemaVersion": "3.4.15",
  "updatedAt": "2023-08-23T12:08:00.899Z",
  "networkType": "ethereum",
  "devdoc": {
    "kind": "dev",
    "methods": {},
    "version": 1
  },
  "userdoc": {
    "kind": "user",
    "methods": {},
    "version": 1
  }
}