{
  "contractName": "Storage",
  "abi": [
    {
      "anonymous": false,
      "inputs": [
        {
          "indexed": false,
          "internalType": "uint256",
          "name": "id",
          "type": "uint256"
        },
        {
          "indexed": false,
          "internalType": "string",
          "name": "content",
          "type": "string"
        }
      ],
      "name": "DataCreated",
      "type": "event"
    },
    {
      "inputs": [
        {
          "internalType": "address",
          "name": "",
          "type": "address"
        },
        {
          "internalType": "uint256",
          "name": "",
          "type": "uint256"
        }
      ],
      "name": "allData",
      "outputs": [
        {
          "internalType": "uint256",
          "name": "id",
          "type": "uint256"
        },
        {
          "internalType": "string",
          "name": "content",
          "type": "string"
        }
      ],
      "stateMutability": "view",
      "type": "function",
      "constant": true
    },
    {
      "inputs": [
        {
          "internalType": "address",
          "name": "",
          "type": "address"
        }
      ],
      "name": "dataCount",
      "outputs": [
        {
          "internalType": "uint256",
          "name": "",
          "type": "uint256"
        }
      ],
      "stateMutability": "view",
      "type": "function",
      "constant": true
    },
    {
      "inputs": [
        {
          "internalType": "string",
          "name": "_content",
          "type": "string"
        }
      ],
      "name": "createData",
      "outputs": [],
      "stateMutability": "nonpayable",
      "type": "function"
    }
  ],
  "bytecode": "0x608060405234801561001057600080fd5b506104ca806100206000396000f3fe608060405234801561001057600080fd5b50600436106100415760003560e01c806389cd6f7d14610046578063b108c3db14610070578063eecd6bc214610090575b600080fd5b6100596100543660046102ee565b6100a5565b6040516100679291906103c1565b60405180910390f35b61008361007e3660046102cd565b610152565b60405161006791906103b8565b6100a361009e366004610317565b610164565b005b6000602081815292815260408082209093529081522080546001820180549192916100cf9061041c565b80601f01602080910402602001604051908101604052809291908181526020018280546100fb9061041c565b80156101485780601f1061011d57610100808354040283529160200191610148565b820191906000526020600020905b81548152906001019060200180831161012b57829003601f168201915b5050505050905082565b60016020526000908152604090205481565b336000818152600160208181526040808420548151808301835281815280840188815296865285845282862082875284529190942081518155945180519495919491936101b79390850192910190610218565b509050507f95392f7010326f1851e56c401692745736be5f075ffbe8e4e272422499052dec81836040516101ec9291906103c1565b60405180910390a133600090815260016020526040812080549161020f83610457565b91905055505050565b8280546102249061041c565b90600052602060002090601f016020900481019282610246576000855561028c565b82601f1061025f57805160ff191683800117855561028c565b8280016001018555821561028c579182015b8281111561028c578251825591602001919060010190610271565b5061029892915061029c565b5090565b5b80821115610298576000815560010161029d565b80356001600160a01b03811681146102c857600080fd5b919050565b6000602082840312156102de578081fd5b6102e7826102b1565b9392505050565b60008060408385031215610300578081fd5b610309836102b1565b946020939093013593505050565b60006020808385031215610329578182fd5b823567ffffffffffffffff80821115610340578384fd5b818501915085601f830112610353578384fd5b8135818111156103655761036561047e565b604051601f8201601f19168101850183811182821017156103885761038861047e565b604052818152838201850188101561039e578586fd5b818585018683013790810190930193909352509392505050565b90815260200190565b600083825260206040818401528351806040850152825b818110156103f4578581018301518582016060015282016103d8565b818111156104055783606083870101525b50601f01601f191692909201606001949350505050565b60028104600182168061043057607f821691505b6020821081141561045157634e487b7160e01b600052602260045260246000fd5b50919050565b600060001982141561047757634e487b7160e01b81526011600452602481fd5b5060010190565b634e487b7160e01b600052604160045260246000fdfea2646970667358221220af59540ab6aa93536ca98ad5f4f539f5ffc84d3060d5da06d8ea1b04510346ff64736f6c63430008000033",
  "immutableReferences": {},
  "source": "// SPDX-License-Identifier: MIT\npragma solidity ^0.8.0;\n\ncontract Storage {\n\n    struct Data {\n        uint id;\n        string content;\n    }\n\n    event DataCreated (\n        uint id,\n        string content\n    );\n\n    // constructor() {\n    //     createData(\"Hello World\");\n    // }\n\n    mapping(address => mapping(uint => Data)) public allData;\n    mapping(address => uint) public dataCount;\n\n    function createData(string memory _content) public {\n        uint count = dataCount[msg.sender];\n        allData[msg.sender][count] = Data(count, _content);\n        emit DataCreated(count, _content);\n        dataCount[msg.sender]++;\n    }\n}",
  "sourcePath": "/Users/aryangupta/Desktop/Capstone/contracts/Storage.sol",
  "compiler": {
    "name": "solc",
    "version": "0.8.0+commit.c7dfd78e.Emscripten.clang"
  },
  "schemaVersion": "3.4.15",
  "updatedAt": "2023-09-11T09:53:21.883Z",
  "networkType": "ethereum",
  "devdoc": {
    "kind": "dev",
    "methods": {},
    "version": 1
  },
  "userdoc": {
    "kind": "user",
    "methods": {},
    "version": 1
  }
}